{
  "_format": "hh-sol-artifact-1",
  "contractName": "RishiContract",
  "sourceName": "contracts/RishiContract.sol",
  "abi": [
    {
      "inputs": [],
      "stateMutability": "nonpayable",
      "type": "constructor"
    },
    {
      "inputs": [
        {
          "internalType": "uint256",
          "name": "_amount",
          "type": "uint256"
        }
      ],
      "name": "addTokens",
      "outputs": [],
      "stateMutability": "nonpayable",
      "type": "function"
    },
    {
      "inputs": [
        {
          "internalType": "address",
          "name": "",
          "type": "address"
        }
      ],
      "name": "balances",
      "outputs": [
        {
          "internalType": "uint256",
          "name": "",
          "type": "uint256"
        }
      ],
      "stateMutability": "view",
      "type": "function"
    },
    {
      "inputs": [],
      "name": "getOwnerData",
      "outputs": [
        {
          "internalType": "string",
          "name": "",
          "type": "string"
        }
      ],
      "stateMutability": "view",
      "type": "function"
    },
    {
      "inputs": [],
      "name": "ownerName",
      "outputs": [
        {
          "internalType": "string",
          "name": "",
          "type": "string"
        }
      ],
      "stateMutability": "view",
      "type": "function"
    },
    {
      "inputs": [
        {
          "internalType": "uint256",
          "name": "_amount",
          "type": "uint256"
        }
      ],
      "name": "subtractTokens",
      "outputs": [],
      "stateMutability": "nonpayable",
      "type": "function"
    }
  ],
  "bytecode": "0x60806040523480156200001157600080fd5b506040518060400160405280600581526020017f5269736869000000000000000000000000000000000000000000000000000000815250600090816200005891906200031a565b5033600160006101000a81548173ffffffffffffffffffffffffffffffffffffffff021916908373ffffffffffffffffffffffffffffffffffffffff16021790555062000401565b600081519050919050565b7f4e487b7100000000000000000000000000000000000000000000000000000000600052604160045260246000fd5b7f4e487b7100000000000000000000000000000000000000000000000000000000600052602260045260246000fd5b600060028204905060018216806200012257607f821691505b602082108103620001385762000137620000da565b5b50919050565b60008190508160005260206000209050919050565b60006020601f8301049050919050565b600082821b905092915050565b600060088302620001a27fffffffffffffffffffffffffffffffffffffffffffffffffffffffffffffffff8262000163565b620001ae868362000163565b95508019841693508086168417925050509392505050565b6000819050919050565b6000819050919050565b6000620001fb620001f5620001ef84620001c6565b620001d0565b620001c6565b9050919050565b6000819050919050565b6200021783620001da565b6200022f620002268262000202565b84845462000170565b825550505050565b600090565b6200024662000237565b620002538184846200020c565b505050565b5b818110156200027b576200026f6000826200023c565b60018101905062000259565b5050565b601f821115620002ca5762000294816200013e565b6200029f8462000153565b81016020851015620002af578190505b620002c7620002be8562000153565b83018262000258565b50505b505050565b600082821c905092915050565b6000620002ef60001984600802620002cf565b1980831691505092915050565b60006200030a8383620002dc565b9150826002028217905092915050565b6200032582620000a0565b67ffffffffffffffff811115620003415762000340620000ab565b5b6200034d825462000109565b6200035a8282856200027f565b600060209050601f8311600181146200039257600084156200037d578287015190505b620003898582620002fc565b865550620003f9565b601f198416620003a2866200013e565b60005b82811015620003cc57848901518255600182019150602085019450602081019050620003a5565b86831015620003ec5784890151620003e8601f891682620002dc565b8355505b6001600288020188555050505b505050505050565b6106d480620004116000396000f3fe608060405234801561001057600080fd5b50600436106100575760003560e01c806327e235e31461005c57806365ac23201461008c578063a2cafacf146100aa578063c6ed8990146100c6578063e4b85399146100e2575b600080fd5b610076600480360381019061007191906103cf565b610100565b6040516100839190610415565b60405180910390f35b610094610118565b6040516100a191906104c0565b60405180910390f35b6100c460048036038101906100bf919061050e565b6101a6565b005b6100e060048036038101906100db919061050e565b610281565b005b6100ea6102da565b6040516100f791906104c0565b60405180910390f35b60026020528060005260406000206000915090505481565b600080546101259061056a565b80601f01602080910402602001604051908101604052809291908181526020018280546101519061056a565b801561019e5780601f106101735761010080835404028352916020019161019e565b820191906000526020600020905b81548152906001019060200180831161018157829003601f168201915b505050505081565b80600260003373ffffffffffffffffffffffffffffffffffffffff1673ffffffffffffffffffffffffffffffffffffffff168152602001908152602001600020541015610228576040517f08c379a000000000000000000000000000000000000000000000000000000000815260040161021f906105e7565b60405180910390fd5b80600260003373ffffffffffffffffffffffffffffffffffffffff1673ffffffffffffffffffffffffffffffffffffffff16815260200190815260200160002060008282546102779190610636565b9250508190555050565b80600260003373ffffffffffffffffffffffffffffffffffffffff1673ffffffffffffffffffffffffffffffffffffffff16815260200190815260200160002060008282546102d0919061066a565b9250508190555050565b6060600080546102e99061056a565b80601f01602080910402602001604051908101604052809291908181526020018280546103159061056a565b80156103625780601f1061033757610100808354040283529160200191610362565b820191906000526020600020905b81548152906001019060200180831161034557829003601f168201915b5050505050905090565b600080fd5b600073ffffffffffffffffffffffffffffffffffffffff82169050919050565b600061039c82610371565b9050919050565b6103ac81610391565b81146103b757600080fd5b50565b6000813590506103c9816103a3565b92915050565b6000602082840312156103e5576103e461036c565b5b60006103f3848285016103ba565b91505092915050565b6000819050919050565b61040f816103fc565b82525050565b600060208201905061042a6000830184610406565b92915050565b600081519050919050565b600082825260208201905092915050565b60005b8381101561046a57808201518184015260208101905061044f565b60008484015250505050565b6000601f19601f8301169050919050565b600061049282610430565b61049c818561043b565b93506104ac81856020860161044c565b6104b581610476565b840191505092915050565b600060208201905081810360008301526104da8184610487565b905092915050565b6104eb816103fc565b81146104f657600080fd5b50565b600081359050610508816104e2565b92915050565b6000602082840312156105245761052361036c565b5b6000610532848285016104f9565b91505092915050565b7f4e487b7100000000000000000000000000000000000000000000000000000000600052602260045260246000fd5b6000600282049050600182168061058257607f821691505b6020821081036105955761059461053b565b5b50919050565b7f596f75722062616c616e636520697320696e73756666696369656e7400000000600082015250565b60006105d1601c8361043b565b91506105dc8261059b565b602082019050919050565b60006020820190508181036000830152610600816105c4565b9050919050565b7f4e487b7100000000000000000000000000000000000000000000000000000000600052601160045260246000fd5b6000610641826103fc565b915061064c836103fc565b925082820390508181111561066457610663610607565b5b92915050565b6000610675826103fc565b9150610680836103fc565b925082820190508082111561069857610697610607565b5b9291505056fea2646970667358221220e33a96d79d853bc03d23e4bad8910f63b5800112965464d44a6b3b99c371f21e64736f6c63430008120033",
  "linkReferences": {},
  "deployedLinkReferences": {}
}